{
  "_format": "hh-sol-artifact-1",
  "contractName": "CFNFT",
  "sourceName": "contracts/CFNT.sol",
  "abi": [
    {
      "inputs": [
        {
          "internalType": "string",
          "name": "_name",
          "type": "string"
        },
        {
          "internalType": "string",
          "name": "_symbol",
          "type": "string"
        },
        {
          "internalType": "uint256",
          "name": "_maxSupply",
          "type": "uint256"
        },
        {
          "internalType": "string",
          "name": "_base_URI",
          "type": "string"
        },
        {
          "internalType": "contract IERC20",
          "name": "_feeToken",
          "type": "address"
        },
        {
          "internalType": "address",
          "name": "_treasuryAddress",
          "type": "address"
        },
        {
          "internalType": "address",
          "name": "_devAddress",
          "type": "address"
        },
        {
          "internalType": "uint256",
          "name": "_treasuryFee",
          "type": "uint256"
        },
        {
          "internalType": "uint256",
          "name": "_devFee",
          "type": "uint256"
        }
      ],
      "stateMutability": "nonpayable",
      "type": "constructor"
    },
    {
      "anonymous": false,
      "inputs": [
        {
          "indexed": true,
          "internalType": "address",
          "name": "owner",
          "type": "address"
        },
        {
          "indexed": true,
          "internalType": "address",
          "name": "approved",
          "type": "address"
        },
        {
          "indexed": true,
          "internalType": "uint256",
          "name": "tokenId",
          "type": "uint256"
        }
      ],
      "name": "Approval",
      "type": "event"
    },
    {
      "anonymous": false,
      "inputs": [
        {
          "indexed": true,
          "internalType": "address",
          "name": "owner",
          "type": "address"
        },
        {
          "indexed": true,
          "internalType": "address",
          "name": "operator",
          "type": "address"
        },
        {
          "indexed": false,
          "internalType": "bool",
          "name": "approved",
          "type": "bool"
        }
      ],
      "name": "ApprovalForAll",
      "type": "event"
    },
    {
      "anonymous": false,
      "inputs": [
        {
          "indexed": true,
          "internalType": "address",
          "name": "previousOwner",
          "type": "address"
        },
        {
          "indexed": true,
          "internalType": "address",
          "name": "newOwner",
          "type": "address"
        }
      ],
      "name": "OwnershipTransferred",
      "type": "event"
    },
    {
      "anonymous": false,
      "inputs": [
        {
          "indexed": false,
          "internalType": "address",
          "name": "account",
          "type": "address"
        }
      ],
      "name": "Paused",
      "type": "event"
    },
    {
      "anonymous": false,
      "inputs": [
        {
          "indexed": true,
          "internalType": "address",
          "name": "from",
          "type": "address"
        },
        {
          "indexed": true,
          "internalType": "address",
          "name": "to",
          "type": "address"
        },
        {
          "indexed": true,
          "internalType": "uint256",
          "name": "tokenId",
          "type": "uint256"
        }
      ],
      "name": "Transfer",
      "type": "event"
    },
    {
      "anonymous": false,
      "inputs": [
        {
          "indexed": false,
          "internalType": "address",
          "name": "account",
          "type": "address"
        }
      ],
      "name": "Unpaused",
      "type": "event"
    },
    {
      "inputs": [],
      "name": "DEV_ADDRESS",
      "outputs": [
        {
          "internalType": "address",
          "name": "",
          "type": "address"
        }
      ],
      "stateMutability": "view",
      "type": "function"
    },
    {
      "inputs": [],
      "name": "DEV_FEE",
      "outputs": [
        {
          "internalType": "uint256",
          "name": "",
          "type": "uint256"
        }
      ],
      "stateMutability": "view",
      "type": "function"
    },
    {
      "inputs": [],
      "name": "FEE_TOKEN",
      "outputs": [
        {
          "internalType": "contract IERC20",
          "name": "",
          "type": "address"
        }
      ],
      "stateMutability": "view",
      "type": "function"
    },
    {
      "inputs": [],
      "name": "MAX_SUPPLY",
      "outputs": [
        {
          "internalType": "uint256",
          "name": "",
          "type": "uint256"
        }
      ],
      "stateMutability": "view",
      "type": "function"
    },
    {
      "inputs": [],
      "name": "TREASURY_ADDRESS",
      "outputs": [
        {
          "internalType": "address",
          "name": "",
          "type": "address"
        }
      ],
      "stateMutability": "view",
      "type": "function"
    },
    {
      "inputs": [],
      "name": "TREASURY_FEE",
      "outputs": [
        {
          "internalType": "uint256",
          "name": "",
          "type": "uint256"
        }
      ],
      "stateMutability": "view",
      "type": "function"
    },
    {
      "inputs": [
        {
          "internalType": "address",
          "name": "to",
          "type": "address"
        },
        {
          "internalType": "uint256",
          "name": "tokenId",
          "type": "uint256"
        }
      ],
      "name": "approve",
      "outputs": [],
      "stateMutability": "nonpayable",
      "type": "function"
    },
    {
      "inputs": [
        {
          "internalType": "address",
          "name": "owner",
          "type": "address"
        }
      ],
      "name": "balanceOf",
      "outputs": [
        {
          "internalType": "uint256",
          "name": "",
          "type": "uint256"
        }
      ],
      "stateMutability": "view",
      "type": "function"
    },
    {
      "inputs": [
        {
          "internalType": "uint256",
          "name": "tokenId",
          "type": "uint256"
        }
      ],
      "name": "getApproved",
      "outputs": [
        {
          "internalType": "address",
          "name": "",
          "type": "address"
        }
      ],
      "stateMutability": "view",
      "type": "function"
    },
    {
      "inputs": [
        {
          "internalType": "address",
          "name": "owner",
          "type": "address"
        },
        {
          "internalType": "address",
          "name": "operator",
          "type": "address"
        }
      ],
      "name": "isApprovedForAll",
      "outputs": [
        {
          "internalType": "bool",
          "name": "",
          "type": "bool"
        }
      ],
      "stateMutability": "view",
      "type": "function"
    },
    {
      "inputs": [],
      "name": "mint",
      "outputs": [
        {
          "internalType": "uint256",
          "name": "",
          "type": "uint256"
        }
      ],
      "stateMutability": "nonpayable",
      "type": "function"
    },
    {
      "inputs": [],
      "name": "name",
      "outputs": [
        {
          "internalType": "string",
          "name": "",
          "type": "string"
        }
      ],
      "stateMutability": "view",
      "type": "function"
    },
    {
      "inputs": [
        {
          "internalType": "address",
          "name": "",
          "type": "address"
        }
      ],
      "name": "nftOwners",
      "outputs": [
        {
          "internalType": "bool",
          "name": "",
          "type": "bool"
        }
      ],
      "stateMutability": "view",
      "type": "function"
    },
    {
      "inputs": [],
      "name": "owner",
      "outputs": [
        {
          "internalType": "address",
          "name": "",
          "type": "address"
        }
      ],
      "stateMutability": "view",
      "type": "function"
    },
    {
      "inputs": [
        {
          "internalType": "uint256",
          "name": "tokenId",
          "type": "uint256"
        }
      ],
      "name": "ownerOf",
      "outputs": [
        {
          "internalType": "address",
          "name": "",
          "type": "address"
        }
      ],
      "stateMutability": "view",
      "type": "function"
    },
    {
      "inputs": [],
      "name": "pause",
      "outputs": [],
      "stateMutability": "nonpayable",
      "type": "function"
    },
    {
      "inputs": [],
      "name": "paused",
      "outputs": [
        {
          "internalType": "bool",
          "name": "",
          "type": "bool"
        }
      ],
      "stateMutability": "view",
      "type": "function"
    },
    {
      "inputs": [],
      "name": "renounceOwnership",
      "outputs": [],
      "stateMutability": "nonpayable",
      "type": "function"
    },
    {
      "inputs": [
        {
          "internalType": "address",
          "name": "from",
          "type": "address"
        },
        {
          "internalType": "address",
          "name": "to",
          "type": "address"
        },
        {
          "internalType": "uint256",
          "name": "tokenId",
          "type": "uint256"
        }
      ],
      "name": "safeTransferFrom",
      "outputs": [],
      "stateMutability": "nonpayable",
      "type": "function"
    },
    {
      "inputs": [
        {
          "internalType": "address",
          "name": "from",
          "type": "address"
        },
        {
          "internalType": "address",
          "name": "to",
          "type": "address"
        },
        {
          "internalType": "uint256",
          "name": "tokenId",
          "type": "uint256"
        },
        {
          "internalType": "bytes",
          "name": "_data",
          "type": "bytes"
        }
      ],
      "name": "safeTransferFrom",
      "outputs": [],
      "stateMutability": "nonpayable",
      "type": "function"
    },
    {
      "inputs": [
        {
          "internalType": "address",
          "name": "operator",
          "type": "address"
        },
        {
          "internalType": "bool",
          "name": "approved",
          "type": "bool"
        }
      ],
      "name": "setApprovalForAll",
      "outputs": [],
      "stateMutability": "nonpayable",
      "type": "function"
    },
    {
      "inputs": [
        {
          "internalType": "bytes4",
          "name": "interfaceId",
          "type": "bytes4"
        }
      ],
      "name": "supportsInterface",
      "outputs": [
        {
          "internalType": "bool",
          "name": "",
          "type": "bool"
        }
      ],
      "stateMutability": "view",
      "type": "function"
    },
    {
      "inputs": [],
      "name": "symbol",
      "outputs": [
        {
          "internalType": "string",
          "name": "",
          "type": "string"
        }
      ],
      "stateMutability": "view",
      "type": "function"
    },
    {
      "inputs": [
        {
          "internalType": "uint256",
          "name": "tokenId",
          "type": "uint256"
        }
      ],
      "name": "tokenURI",
      "outputs": [
        {
          "internalType": "string",
          "name": "",
          "type": "string"
        }
      ],
      "stateMutability": "view",
      "type": "function"
    },
    {
      "inputs": [],
      "name": "totalSupply",
      "outputs": [
        {
          "internalType": "uint256",
          "name": "",
          "type": "uint256"
        }
      ],
      "stateMutability": "view",
      "type": "function"
    },
    {
      "inputs": [
        {
          "internalType": "address",
          "name": "from",
          "type": "address"
        },
        {
          "internalType": "address",
          "name": "to",
          "type": "address"
        },
        {
          "internalType": "uint256",
          "name": "tokenId",
          "type": "uint256"
        }
      ],
      "name": "transferFrom",
      "outputs": [],
      "stateMutability": "nonpayable",
      "type": "function"
    },
    {
      "inputs": [
        {
          "internalType": "address",
          "name": "newOwner",
          "type": "address"
        }
      ],
      "name": "transferOwnership",
      "outputs": [],
      "stateMutability": "nonpayable",
      "type": "function"
    },
    {
      "inputs": [],
      "name": "unpause",
      "outputs": [],
      "stateMutability": "nonpayable",
      "type": "function"
    },
    {
      "inputs": [
        {
          "internalType": "string",
          "name": "_newURI",
          "type": "string"
        }
      ],
      "name": "updateURI",
      "outputs": [],
      "stateMutability": "nonpayable",
      "type": "function"
    }
  ],
  "bytecode": "0x6101406040523480156200001257600080fd5b5060405162004233380380620042338339818101604052810190620000389190620003c5565b88888160009080519060200190620000529291906200025e565b5080600190805190602001906200006b9291906200025e565b5050506000600660006101000a81548160ff021916908315150217905550620000a96200009d6200019060201b60201c565b6200019860201b60201c565b86608081815250508560079080519060200190620000c99291906200025e565b508473ffffffffffffffffffffffffffffffffffffffff1660a08173ffffffffffffffffffffffffffffffffffffffff1660601b815250508373ffffffffffffffffffffffffffffffffffffffff1660c08173ffffffffffffffffffffffffffffffffffffffff1660601b815250508273ffffffffffffffffffffffffffffffffffffffff1660e08173ffffffffffffffffffffffffffffffffffffffff1660601b81525050816101008181525050806101208181525050505050505050505050620006f9565b600033905090565b6000600660019054906101000a900473ffffffffffffffffffffffffffffffffffffffff16905081600660016101000a81548173ffffffffffffffffffffffffffffffffffffffff021916908373ffffffffffffffffffffffffffffffffffffffff1602179055508173ffffffffffffffffffffffffffffffffffffffff168173ffffffffffffffffffffffffffffffffffffffff167f8be0079c531659141344cd1fd0a4f28419497f9722a3daafe3b4186f6b6457e060405160405180910390a35050565b8280546200026c90620005d0565b90600052602060002090601f016020900481019282620002905760008555620002dc565b82601f10620002ab57805160ff1916838001178555620002dc565b82800160010185558215620002dc579182015b82811115620002db578251825591602001919060010190620002be565b5b509050620002eb9190620002ef565b5090565b5b808211156200030a576000816000905550600101620002f0565b5090565b6000620003256200031f8462000512565b620004e9565b9050828152602081018484840111156200033e57600080fd5b6200034b8482856200059a565b509392505050565b6000815190506200036481620006ab565b92915050565b6000815190506200037b81620006c5565b92915050565b600082601f8301126200039357600080fd5b8151620003a58482602086016200030e565b91505092915050565b600081519050620003bf81620006df565b92915050565b60008060008060008060008060006101208a8c031215620003e557600080fd5b60008a015167ffffffffffffffff8111156200040057600080fd5b6200040e8c828d0162000381565b99505060208a015167ffffffffffffffff8111156200042c57600080fd5b6200043a8c828d0162000381565b98505060406200044d8c828d01620003ae565b97505060608a015167ffffffffffffffff8111156200046b57600080fd5b620004798c828d0162000381565b96505060806200048c8c828d016200036a565b95505060a06200049f8c828d0162000353565b94505060c0620004b28c828d0162000353565b93505060e0620004c58c828d01620003ae565b925050610100620004d98c828d01620003ae565b9150509295985092959850929598565b6000620004f562000508565b905062000503828262000606565b919050565b6000604051905090565b600067ffffffffffffffff82111562000530576200052f6200066b565b5b6200053b826200069a565b9050602081019050919050565b6000620005558262000570565b9050919050565b6000620005698262000548565b9050919050565b600073ffffffffffffffffffffffffffffffffffffffff82169050919050565b6000819050919050565b60005b83811015620005ba5780820151818401526020810190506200059d565b83811115620005ca576000848401525b50505050565b60006002820490506001821680620005e957607f821691505b602082108114156200060057620005ff6200063c565b5b50919050565b62000611826200069a565b810181811067ffffffffffffffff821117156200063357620006326200066b565b5b80604052505050565b7f4e487b7100000000000000000000000000000000000000000000000000000000600052602260045260246000fd5b7f4e487b7100000000000000000000000000000000000000000000000000000000600052604160045260246000fd5b6000601f19601f8301169050919050565b620006b68162000548565b8114620006c257600080fd5b50565b620006d0816200055c565b8114620006dc57600080fd5b50565b620006ea8162000590565b8114620006f657600080fd5b50565b60805160a05160601c60c05160601c60e05160601c6101005161012051613aa26200079160003960008181610a3501528181610a810152610cfe01526000818161097e015281816109ca0152610ff9015260008181610a600152610d220152600081816106e401526109a90152600081816109eb01528181610aa20152610f4f015260008181610b4e0152610c340152613aa26000f3fe608060405234801561001057600080fd5b50600436106101cf5760003560e01c80636352211e1161010457806395d89b41116100a2578063c87b56dd11610071578063c87b56dd146104c2578063cf9b2d89146104f2578063e985e9c514610522578063f2fde38b14610552576101cf565b806395d89b4114610450578063a22cb4651461046e578063b88d4fde1461048a578063c30f4a5a146104a6576101cf565b806373717b08116100de57806373717b08146103ec5780638456cb591461040a5780638ce1a483146104145780638da5cb5b14610432576101cf565b80636352211e1461038257806370a08231146103b2578063715018a6146103e2576101cf565b806323b872dd1161017157806342842e0e1161014b57806342842e0e1461030c578063436a88c1146103285780635639e8cf146103465780635c975abb14610364576101cf565b806323b872dd146102c857806332cb6b0c146102e45780633f4ba83a14610302576101cf565b8063081812fc116101ad578063081812fc14610240578063095ea7b3146102705780631249c58b1461028c57806318160ddd146102aa576101cf565b806301ffc9a7146101d457806306fdde031461020457806307604b1a14610222575b600080fd5b6101ee60048036038101906101e991906127e7565b61056e565b6040516101fb9190612d5c565b60405180910390f35b61020c610650565b6040516102199190612d92565b60405180910390f35b61022a6106e2565b6040516102379190612cbe565b60405180910390f35b61025a6004803603810190610255919061287a565b610706565b6040516102679190612cbe565b60405180910390f35b61028a60048036038101906102859190612782565b61078b565b005b6102946108a3565b6040516102a19190613094565b60405180910390f35b6102b2610bcc565b6040516102bf9190613094565b60405180910390f35b6102e260048036038101906102dd919061267c565b610bd2565b005b6102ec610c32565b6040516102f99190613094565b60405180910390f35b61030a610c56565b005b6103266004803603810190610321919061267c565b610cdc565b005b610330610cfc565b60405161033d9190613094565b60405180910390f35b61034e610d20565b60405161035b9190612cbe565b60405180910390f35b61036c610d44565b6040516103799190612d5c565b60405180910390f35b61039c6004803603810190610397919061287a565b610d5b565b6040516103a99190612cbe565b60405180910390f35b6103cc60048036038101906103c79190612617565b610e0d565b6040516103d99190613094565b60405180910390f35b6103ea610ec5565b005b6103f4610f4d565b6040516104019190612d77565b60405180910390f35b610412610f71565b005b61041c610ff7565b6040516104299190613094565b60405180910390f35b61043a61101b565b6040516104479190612cbe565b60405180910390f35b610458611045565b6040516104659190612d92565b60405180910390f35b61048860048036038101906104839190612746565b6110d7565b005b6104a4600480360381019061049f91906126cb565b6110ed565b005b6104c060048036038101906104bb9190612839565b61114f565b005b6104dc60048036038101906104d7919061287a565b6111e5565b6040516104e99190612d92565b60405180910390f35b61050c60048036038101906105079190612617565b61123e565b6040516105199190612d5c565b60405180910390f35b61053c60048036038101906105379190612640565b61125e565b6040516105499190612d5c565b60405180910390f35b61056c60048036038101906105679190612617565b6112f2565b005b60007f80ac58cd000000000000000000000000000000000000000000000000000000007bffffffffffffffffffffffffffffffffffffffffffffffffffffffff1916827bffffffffffffffffffffffffffffffffffffffffffffffffffffffff1916148061063957507f5b5e139f000000000000000000000000000000000000000000000000000000007bffffffffffffffffffffffffffffffffffffffffffffffffffffffff1916827bffffffffffffffffffffffffffffffffffffffffffffffffffffffff1916145b806106495750610648826113ea565b5b9050919050565b60606000805461065f906132dd565b80601f016020809104026020016040519081016040528092919081815260200182805461068b906132dd565b80156106d85780601f106106ad576101008083540402835291602001916106d8565b820191906000526020600020905b8154815290600101906020018083116106bb57829003601f168201915b5050505050905090565b7f000000000000000000000000000000000000000000000000000000000000000081565b600061071182611454565b610750576040517f08c379a000000000000000000000000000000000000000000000000000000000815260040161074790612f94565b60405180910390fd5b6004600083815260200190815260200160002060009054906101000a900473ffffffffffffffffffffffffffffffffffffffff169050919050565b600061079682610d5b565b90508073ffffffffffffffffffffffffffffffffffffffff168373ffffffffffffffffffffffffffffffffffffffff161415610807576040517f08c379a00000000000000000000000000000000000000000000000000000000081526004016107fe90612ff4565b60405180910390fd5b8073ffffffffffffffffffffffffffffffffffffffff166108266114c0565b73ffffffffffffffffffffffffffffffffffffffff16148061085557506108548161084f6114c0565b61125e565b5b610894576040517f08c379a000000000000000000000000000000000000000000000000000000000815260040161088b90612f14565b60405180910390fd5b61089e83836114c8565b505050565b60006108ad610d44565b156108ed576040517f08c379a00000000000000000000000000000000000000000000000000000000081526004016108e490612ef4565b60405180910390fd5b600960003373ffffffffffffffffffffffffffffffffffffffff1673ffffffffffffffffffffffffffffffffffffffff16815260200190815260200160002060009054906101000a900460ff161561097a576040517f08c379a000000000000000000000000000000000000000000000000000000000815260040161097190613054565b60405180910390fd5b60007f00000000000000000000000000000000000000000000000000000000000000001115610a3157610a30337f00000000000000000000000000000000000000000000000000000000000000007f00000000000000000000000000000000000000000000000000000000000000007f000000000000000000000000000000000000000000000000000000000000000073ffffffffffffffffffffffffffffffffffffffff16611581909392919063ffffffff16565b5b60007f00000000000000000000000000000000000000000000000000000000000000001115610ae857610ae7337f00000000000000000000000000000000000000000000000000000000000000007f00000000000000000000000000000000000000000000000000000000000000007f000000000000000000000000000000000000000000000000000000000000000073ffffffffffffffffffffffffffffffffffffffff16611581909392919063ffffffff16565b5b610af43360085461160a565b6001600960003373ffffffffffffffffffffffffffffffffffffffff1673ffffffffffffffffffffffffffffffffffffffff16815260200190815260200160002060006101000a81548160ff0219169083151502179055507f000000000000000000000000000000000000000000000000000000000000000060085410610bb0576040517f08c379a0000000000000000000000000000000000000000000000000000000008152600401610ba790612ed4565b60405180910390fd5b60086000815480929190610bc390613340565b91905055905090565b60085481565b610be3610bdd6114c0565b82611628565b610c22576040517f08c379a0000000000000000000000000000000000000000000000000000000008152600401610c1990613014565b60405180910390fd5b610c2d838383611706565b505050565b7f000000000000000000000000000000000000000000000000000000000000000081565b610c5e6114c0565b73ffffffffffffffffffffffffffffffffffffffff16610c7c61101b565b73ffffffffffffffffffffffffffffffffffffffff1614610cd2576040517f08c379a0000000000000000000000000000000000000000000000000000000008152600401610cc990612fb4565b60405180910390fd5b610cda61196d565b565b610cf7838383604051806020016040528060008152506110ed565b505050565b7f000000000000000000000000000000000000000000000000000000000000000081565b7f000000000000000000000000000000000000000000000000000000000000000081565b6000600660009054906101000a900460ff16905090565b6000806002600084815260200190815260200160002060009054906101000a900473ffffffffffffffffffffffffffffffffffffffff169050600073ffffffffffffffffffffffffffffffffffffffff168173ffffffffffffffffffffffffffffffffffffffff161415610e04576040517f08c379a0000000000000000000000000000000000000000000000000000000008152600401610dfb90612f54565b60405180910390fd5b80915050919050565b60008073ffffffffffffffffffffffffffffffffffffffff168273ffffffffffffffffffffffffffffffffffffffff161415610e7e576040517f08c379a0000000000000000000000000000000000000000000000000000000008152600401610e7590612f34565b60405180910390fd5b600360008373ffffffffffffffffffffffffffffffffffffffff1673ffffffffffffffffffffffffffffffffffffffff168152602001908152602001600020549050919050565b610ecd6114c0565b73ffffffffffffffffffffffffffffffffffffffff16610eeb61101b565b73ffffffffffffffffffffffffffffffffffffffff1614610f41576040517f08c379a0000000000000000000000000000000000000000000000000000000008152600401610f3890612fb4565b60405180910390fd5b610f4b6000611a0f565b565b7f000000000000000000000000000000000000000000000000000000000000000081565b610f796114c0565b73ffffffffffffffffffffffffffffffffffffffff16610f9761101b565b73ffffffffffffffffffffffffffffffffffffffff1614610fed576040517f08c379a0000000000000000000000000000000000000000000000000000000008152600401610fe490612fb4565b60405180910390fd5b610ff5611ad5565b565b7f000000000000000000000000000000000000000000000000000000000000000081565b6000600660019054906101000a900473ffffffffffffffffffffffffffffffffffffffff16905090565b606060018054611054906132dd565b80601f0160208091040260200160405190810160405280929190818152602001828054611080906132dd565b80156110cd5780601f106110a2576101008083540402835291602001916110cd565b820191906000526020600020905b8154815290600101906020018083116110b057829003601f168201915b5050505050905090565b6110e96110e26114c0565b8383611b78565b5050565b6110fe6110f86114c0565b83611628565b61113d576040517f08c379a000000000000000000000000000000000000000000000000000000000815260040161113490613014565b60405180910390fd5b61114984848484611ce5565b50505050565b6111576114c0565b73ffffffffffffffffffffffffffffffffffffffff1661117561101b565b73ffffffffffffffffffffffffffffffffffffffff16146111cb576040517f08c379a00000000000000000000000000000000000000000000000000000000081526004016111c290612fb4565b60405180910390fd5b80600790805190602001906111e1929190612426565b5050565b60606111f082611454565b61122f576040517f08c379a000000000000000000000000000000000000000000000000000000000815260040161122690612fd4565b60405180910390fd5b611237611d41565b9050919050565b60096020528060005260406000206000915054906101000a900460ff1681565b6000600560008473ffffffffffffffffffffffffffffffffffffffff1673ffffffffffffffffffffffffffffffffffffffff16815260200190815260200160002060008373ffffffffffffffffffffffffffffffffffffffff1673ffffffffffffffffffffffffffffffffffffffff16815260200190815260200160002060009054906101000a900460ff16905092915050565b6112fa6114c0565b73ffffffffffffffffffffffffffffffffffffffff1661131861101b565b73ffffffffffffffffffffffffffffffffffffffff161461136e576040517f08c379a000000000000000000000000000000000000000000000000000000000815260040161136590612fb4565b60405180910390fd5b600073ffffffffffffffffffffffffffffffffffffffff168173ffffffffffffffffffffffffffffffffffffffff1614156113de576040517f08c379a00000000000000000000000000000000000000000000000000000000081526004016113d590612df4565b60405180910390fd5b6113e781611a0f565b50565b60007f01ffc9a7000000000000000000000000000000000000000000000000000000007bffffffffffffffffffffffffffffffffffffffffffffffffffffffff1916827bffffffffffffffffffffffffffffffffffffffffffffffffffffffff1916149050919050565b60008073ffffffffffffffffffffffffffffffffffffffff166002600084815260200190815260200160002060009054906101000a900473ffffffffffffffffffffffffffffffffffffffff1673ffffffffffffffffffffffffffffffffffffffff1614159050919050565b600033905090565b816004600083815260200190815260200160002060006101000a81548173ffffffffffffffffffffffffffffffffffffffff021916908373ffffffffffffffffffffffffffffffffffffffff160217905550808273ffffffffffffffffffffffffffffffffffffffff1661153b83610d5b565b73ffffffffffffffffffffffffffffffffffffffff167f8c5be1e5ebec7d5bd14f71427d1e84f3dd0314c0f7b2291e5b200ac8c7c3b92560405160405180910390a45050565b611604846323b872dd60e01b8585856040516024016115a293929190612cd9565b604051602081830303815290604052907bffffffffffffffffffffffffffffffffffffffffffffffffffffffff19166020820180517bffffffffffffffffffffffffffffffffffffffffffffffffffffffff8381831617835250505050611dd3565b50505050565b611624828260405180602001604052806000815250611e9a565b5050565b600061163382611454565b611672576040517f08c379a000000000000000000000000000000000000000000000000000000000815260040161166990612eb4565b60405180910390fd5b600061167d83610d5b565b90508073ffffffffffffffffffffffffffffffffffffffff168473ffffffffffffffffffffffffffffffffffffffff1614806116ec57508373ffffffffffffffffffffffffffffffffffffffff166116d484610706565b73ffffffffffffffffffffffffffffffffffffffff16145b806116fd57506116fc818561125e565b5b91505092915050565b8273ffffffffffffffffffffffffffffffffffffffff1661172682610d5b565b73ffffffffffffffffffffffffffffffffffffffff161461177c576040517f08c379a000000000000000000000000000000000000000000000000000000000815260040161177390612e14565b60405180910390fd5b600073ffffffffffffffffffffffffffffffffffffffff168273ffffffffffffffffffffffffffffffffffffffff1614156117ec576040517f08c379a00000000000000000000000000000000000000000000000000000000081526004016117e390612e54565b60405180910390fd5b6117f7838383611ef5565b6118026000826114c8565b6001600360008573ffffffffffffffffffffffffffffffffffffffff1673ffffffffffffffffffffffffffffffffffffffff168152602001908152602001600020600082825461185291906131cf565b925050819055506001600360008473ffffffffffffffffffffffffffffffffffffffff1673ffffffffffffffffffffffffffffffffffffffff16815260200190815260200160002060008282546118a99190613179565b92505081905550816002600083815260200190815260200160002060006101000a81548173ffffffffffffffffffffffffffffffffffffffff021916908373ffffffffffffffffffffffffffffffffffffffff160217905550808273ffffffffffffffffffffffffffffffffffffffff168473ffffffffffffffffffffffffffffffffffffffff167fddf252ad1be2c89b69c2b068fc378daa952ba7f163c4a11628f55a4df523b3ef60405160405180910390a4611968838383611efa565b505050565b611975610d44565b6119b4576040517f08c379a00000000000000000000000000000000000000000000000000000000081526004016119ab90612db4565b60405180910390fd5b6000600660006101000a81548160ff0219169083151502179055507f5db9ee0a495bf2e6ff9c91a7834c1ba4fdd244a5e8aa4e537bd38aeae4b073aa6119f86114c0565b604051611a059190612cbe565b60405180910390a1565b6000600660019054906101000a900473ffffffffffffffffffffffffffffffffffffffff16905081600660016101000a81548173ffffffffffffffffffffffffffffffffffffffff021916908373ffffffffffffffffffffffffffffffffffffffff1602179055508173ffffffffffffffffffffffffffffffffffffffff168173ffffffffffffffffffffffffffffffffffffffff167f8be0079c531659141344cd1fd0a4f28419497f9722a3daafe3b4186f6b6457e060405160405180910390a35050565b611add610d44565b15611b1d576040517f08c379a0000000000000000000000000000000000000000000000000000000008152600401611b1490612ef4565b60405180910390fd5b6001600660006101000a81548160ff0219169083151502179055507f62e78cea01bee320cd4e420270b5ea74000d11b0c9f74754ebdbfc544b05a258611b616114c0565b604051611b6e9190612cbe565b60405180910390a1565b8173ffffffffffffffffffffffffffffffffffffffff168373ffffffffffffffffffffffffffffffffffffffff161415611be7576040517f08c379a0000000000000000000000000000000000000000000000000000000008152600401611bde90612e74565b60405180910390fd5b80600560008573ffffffffffffffffffffffffffffffffffffffff1673ffffffffffffffffffffffffffffffffffffffff16815260200190815260200160002060008473ffffffffffffffffffffffffffffffffffffffff1673ffffffffffffffffffffffffffffffffffffffff16815260200190815260200160002060006101000a81548160ff0219169083151502179055508173ffffffffffffffffffffffffffffffffffffffff168373ffffffffffffffffffffffffffffffffffffffff167f17307eab39ab6107e8899845ad3d59bd9653f200f220920489ca2b5937696c3183604051611cd89190612d5c565b60405180910390a3505050565b611cf0848484611706565b611cfc84848484611eff565b611d3b576040517f08c379a0000000000000000000000000000000000000000000000000000000008152600401611d3290612dd4565b60405180910390fd5b50505050565b606060078054611d50906132dd565b80601f0160208091040260200160405190810160405280929190818152602001828054611d7c906132dd565b8015611dc95780601f10611d9e57610100808354040283529160200191611dc9565b820191906000526020600020905b815481529060010190602001808311611dac57829003601f168201915b5050505050905090565b6000611e35826040518060400160405280602081526020017f5361666545524332303a206c6f772d6c6576656c2063616c6c206661696c65648152508573ffffffffffffffffffffffffffffffffffffffff166120969092919063ffffffff16565b9050600081511115611e955780806020019051810190611e5591906127be565b611e94576040517f08c379a0000000000000000000000000000000000000000000000000000000008152600401611e8b90613074565b60405180910390fd5b5b505050565b611ea483836120ae565b611eb16000848484611eff565b611ef0576040517f08c379a0000000000000000000000000000000000000000000000000000000008152600401611ee790612dd4565b60405180910390fd5b505050565b505050565b505050565b6000611f208473ffffffffffffffffffffffffffffffffffffffff16612288565b15612089578373ffffffffffffffffffffffffffffffffffffffff1663150b7a02611f496114c0565b8786866040518563ffffffff1660e01b8152600401611f6b9493929190612d10565b602060405180830381600087803b158015611f8557600080fd5b505af1925050508015611fb657506040513d601f19601f82011682018060405250810190611fb39190612810565b60015b612039573d8060008114611fe6576040519150601f19603f3d011682016040523d82523d6000602084013e611feb565b606091505b50600081511415612031576040517f08c379a000000000000000000000000000000000000000000000000000000000815260040161202890612dd4565b60405180910390fd5b805181602001fd5b63150b7a0260e01b7bffffffffffffffffffffffffffffffffffffffffffffffffffffffff1916817bffffffffffffffffffffffffffffffffffffffffffffffffffffffff19161491505061208e565b600190505b949350505050565b60606120a584846000856122ab565b90509392505050565b600073ffffffffffffffffffffffffffffffffffffffff168273ffffffffffffffffffffffffffffffffffffffff16141561211e576040517f08c379a000000000000000000000000000000000000000000000000000000000815260040161211590612f74565b60405180910390fd5b61212781611454565b15612167576040517f08c379a000000000000000000000000000000000000000000000000000000000815260040161215e90612e34565b60405180910390fd5b61217360008383611ef5565b6001600360008473ffffffffffffffffffffffffffffffffffffffff1673ffffffffffffffffffffffffffffffffffffffff16815260200190815260200160002060008282546121c39190613179565b92505081905550816002600083815260200190815260200160002060006101000a81548173ffffffffffffffffffffffffffffffffffffffff021916908373ffffffffffffffffffffffffffffffffffffffff160217905550808273ffffffffffffffffffffffffffffffffffffffff16600073ffffffffffffffffffffffffffffffffffffffff167fddf252ad1be2c89b69c2b068fc378daa952ba7f163c4a11628f55a4df523b3ef60405160405180910390a461228460008383611efa565b5050565b6000808273ffffffffffffffffffffffffffffffffffffffff163b119050919050565b6060824710156122f0576040517f08c379a00000000000000000000000000000000000000000000000000000000081526004016122e790612e94565b60405180910390fd5b6122f985612288565b612338576040517f08c379a000000000000000000000000000000000000000000000000000000000815260040161232f90613034565b60405180910390fd5b6000808673ffffffffffffffffffffffffffffffffffffffff1685876040516123619190612ca7565b60006040518083038185875af1925050503d806000811461239e576040519150601f19603f3d011682016040523d82523d6000602084013e6123a3565b606091505b50915091506123b38282866123bf565b92505050949350505050565b606083156123cf5782905061241f565b6000835111156123e25782518084602001fd5b816040517f08c379a00000000000000000000000000000000000000000000000000000000081526004016124169190612d92565b60405180910390fd5b9392505050565b828054612432906132dd565b90600052602060002090601f016020900481019282612454576000855561249b565b82601f1061246d57805160ff191683800117855561249b565b8280016001018555821561249b579182015b8281111561249a57825182559160200191906001019061247f565b5b5090506124a891906124ac565b5090565b5b808211156124c55760008160009055506001016124ad565b5090565b60006124dc6124d7846130d4565b6130af565b9050828152602081018484840111156124f457600080fd5b6124ff84828561329b565b509392505050565b600061251a61251584613105565b6130af565b90508281526020810184848401111561253257600080fd5b61253d84828561329b565b509392505050565b60008135905061255481613a10565b92915050565b60008135905061256981613a27565b92915050565b60008151905061257e81613a27565b92915050565b60008135905061259381613a3e565b92915050565b6000815190506125a881613a3e565b92915050565b600082601f8301126125bf57600080fd5b81356125cf8482602086016124c9565b91505092915050565b600082601f8301126125e957600080fd5b81356125f9848260208601612507565b91505092915050565b60008135905061261181613a55565b92915050565b60006020828403121561262957600080fd5b600061263784828501612545565b91505092915050565b6000806040838503121561265357600080fd5b600061266185828601612545565b925050602061267285828601612545565b9150509250929050565b60008060006060848603121561269157600080fd5b600061269f86828701612545565b93505060206126b086828701612545565b92505060406126c186828701612602565b9150509250925092565b600080600080608085870312156126e157600080fd5b60006126ef87828801612545565b945050602061270087828801612545565b935050604061271187828801612602565b925050606085013567ffffffffffffffff81111561272e57600080fd5b61273a878288016125ae565b91505092959194509250565b6000806040838503121561275957600080fd5b600061276785828601612545565b92505060206127788582860161255a565b9150509250929050565b6000806040838503121561279557600080fd5b60006127a385828601612545565b92505060206127b485828601612602565b9150509250929050565b6000602082840312156127d057600080fd5b60006127de8482850161256f565b91505092915050565b6000602082840312156127f957600080fd5b600061280784828501612584565b91505092915050565b60006020828403121561282257600080fd5b600061283084828501612599565b91505092915050565b60006020828403121561284b57600080fd5b600082013567ffffffffffffffff81111561286557600080fd5b612871848285016125d8565b91505092915050565b60006020828403121561288c57600080fd5b600061289a84828501612602565b91505092915050565b6128ac81613203565b82525050565b6128bb81613215565b82525050565b60006128cc82613136565b6128d6818561314c565b93506128e68185602086016132aa565b6128ef81613416565b840191505092915050565b600061290582613136565b61290f818561315d565b935061291f8185602086016132aa565b80840191505092915050565b61293481613277565b82525050565b600061294582613141565b61294f8185613168565b935061295f8185602086016132aa565b61296881613416565b840191505092915050565b6000612980601483613168565b915061298b82613427565b602082019050919050565b60006129a3603283613168565b91506129ae82613450565b604082019050919050565b60006129c6602683613168565b91506129d18261349f565b604082019050919050565b60006129e9602583613168565b91506129f4826134ee565b604082019050919050565b6000612a0c601c83613168565b9150612a178261353d565b602082019050919050565b6000612a2f602483613168565b9150612a3a82613566565b604082019050919050565b6000612a52601983613168565b9150612a5d826135b5565b602082019050919050565b6000612a75602683613168565b9150612a80826135de565b604082019050919050565b6000612a98602c83613168565b9150612aa38261362d565b604082019050919050565b6000612abb601e83613168565b9150612ac68261367c565b602082019050919050565b6000612ade601083613168565b9150612ae9826136a5565b602082019050919050565b6000612b01603883613168565b9150612b0c826136ce565b604082019050919050565b6000612b24602a83613168565b9150612b2f8261371d565b604082019050919050565b6000612b47602983613168565b9150612b528261376c565b604082019050919050565b6000612b6a602083613168565b9150612b75826137bb565b602082019050919050565b6000612b8d602c83613168565b9150612b98826137e4565b604082019050919050565b6000612bb0602083613168565b9150612bbb82613833565b602082019050919050565b6000612bd3602f83613168565b9150612bde8261385c565b604082019050919050565b6000612bf6602183613168565b9150612c01826138ab565b604082019050919050565b6000612c19603183613168565b9150612c24826138fa565b604082019050919050565b6000612c3c601d83613168565b9150612c4782613949565b602082019050919050565b6000612c5f602383613168565b9150612c6a82613972565b604082019050919050565b6000612c82602a83613168565b9150612c8d826139c1565b604082019050919050565b612ca18161326d565b82525050565b6000612cb382846128fa565b915081905092915050565b6000602082019050612cd360008301846128a3565b92915050565b6000606082019050612cee60008301866128a3565b612cfb60208301856128a3565b612d086040830184612c98565b949350505050565b6000608082019050612d2560008301876128a3565b612d3260208301866128a3565b612d3f6040830185612c98565b8181036060830152612d5181846128c1565b905095945050505050565b6000602082019050612d7160008301846128b2565b92915050565b6000602082019050612d8c600083018461292b565b92915050565b60006020820190508181036000830152612dac818461293a565b905092915050565b60006020820190508181036000830152612dcd81612973565b9050919050565b60006020820190508181036000830152612ded81612996565b9050919050565b60006020820190508181036000830152612e0d816129b9565b9050919050565b60006020820190508181036000830152612e2d816129dc565b9050919050565b60006020820190508181036000830152612e4d816129ff565b9050919050565b60006020820190508181036000830152612e6d81612a22565b9050919050565b60006020820190508181036000830152612e8d81612a45565b9050919050565b60006020820190508181036000830152612ead81612a68565b9050919050565b60006020820190508181036000830152612ecd81612a8b565b9050919050565b60006020820190508181036000830152612eed81612aae565b9050919050565b60006020820190508181036000830152612f0d81612ad1565b9050919050565b60006020820190508181036000830152612f2d81612af4565b9050919050565b60006020820190508181036000830152612f4d81612b17565b9050919050565b60006020820190508181036000830152612f6d81612b3a565b9050919050565b60006020820190508181036000830152612f8d81612b5d565b9050919050565b60006020820190508181036000830152612fad81612b80565b9050919050565b60006020820190508181036000830152612fcd81612ba3565b9050919050565b60006020820190508181036000830152612fed81612bc6565b9050919050565b6000602082019050818103600083015261300d81612be9565b9050919050565b6000602082019050818103600083015261302d81612c0c565b9050919050565b6000602082019050818103600083015261304d81612c2f565b9050919050565b6000602082019050818103600083015261306d81612c52565b9050919050565b6000602082019050818103600083015261308d81612c75565b9050919050565b60006020820190506130a96000830184612c98565b92915050565b60006130b96130ca565b90506130c5828261330f565b919050565b6000604051905090565b600067ffffffffffffffff8211156130ef576130ee6133e7565b5b6130f882613416565b9050602081019050919050565b600067ffffffffffffffff8211156131205761311f6133e7565b5b61312982613416565b9050602081019050919050565b600081519050919050565b600081519050919050565b600082825260208201905092915050565b600081905092915050565b600082825260208201905092915050565b60006131848261326d565b915061318f8361326d565b9250827fffffffffffffffffffffffffffffffffffffffffffffffffffffffffffffffff038211156131c4576131c3613389565b5b828201905092915050565b60006131da8261326d565b91506131e58361326d565b9250828210156131f8576131f7613389565b5b828203905092915050565b600061320e8261324d565b9050919050565b60008115159050919050565b60007fffffffff0000000000000000000000000000000000000000000000000000000082169050919050565b600073ffffffffffffffffffffffffffffffffffffffff82169050919050565b6000819050919050565b600061328282613289565b9050919050565b60006132948261324d565b9050919050565b82818337600083830152505050565b60005b838110156132c85780820151818401526020810190506132ad565b838111156132d7576000848401525b50505050565b600060028204905060018216806132f557607f821691505b60208210811415613309576133086133b8565b5b50919050565b61331882613416565b810181811067ffffffffffffffff82111715613337576133366133e7565b5b80604052505050565b600061334b8261326d565b91507fffffffffffffffffffffffffffffffffffffffffffffffffffffffffffffffff82141561337e5761337d613389565b5b600182019050919050565b7f4e487b7100000000000000000000000000000000000000000000000000000000600052601160045260246000fd5b7f4e487b7100000000000000000000000000000000000000000000000000000000600052602260045260246000fd5b7f4e487b7100000000000000000000000000000000000000000000000000000000600052604160045260246000fd5b6000601f19601f8301169050919050565b7f5061757361626c653a206e6f7420706175736564000000000000000000000000600082015250565b7f4552433732313a207472616e7366657220746f206e6f6e20455243373231526560008201527f63656976657220696d706c656d656e7465720000000000000000000000000000602082015250565b7f4f776e61626c653a206e6577206f776e657220697320746865207a65726f206160008201527f6464726573730000000000000000000000000000000000000000000000000000602082015250565b7f4552433732313a207472616e736665722066726f6d20696e636f72726563742060008201527f6f776e6572000000000000000000000000000000000000000000000000000000602082015250565b7f4552433732313a20746f6b656e20616c7265616479206d696e74656400000000600082015250565b7f4552433732313a207472616e7366657220746f20746865207a65726f2061646460008201527f7265737300000000000000000000000000000000000000000000000000000000602082015250565b7f4552433732313a20617070726f766520746f2063616c6c657200000000000000600082015250565b7f416464726573733a20696e73756666696369656e742062616c616e636520666f60008201527f722063616c6c0000000000000000000000000000000000000000000000000000602082015250565b7f4552433732313a206f70657261746f7220717565727920666f72206e6f6e657860008201527f697374656e7420746f6b656e0000000000000000000000000000000000000000602082015250565b7f436f726e4669204e46543a204d617820737570706c7920726561636865640000600082015250565b7f5061757361626c653a2070617573656400000000000000000000000000000000600082015250565b7f4552433732313a20617070726f76652063616c6c6572206973206e6f74206f7760008201527f6e6572206e6f7220617070726f76656420666f7220616c6c0000000000000000602082015250565b7f4552433732313a2062616c616e636520717565727920666f7220746865207a6560008201527f726f206164647265737300000000000000000000000000000000000000000000602082015250565b7f4552433732313a206f776e657220717565727920666f72206e6f6e657869737460008201527f656e7420746f6b656e0000000000000000000000000000000000000000000000602082015250565b7f4552433732313a206d696e7420746f20746865207a65726f2061646472657373600082015250565b7f4552433732313a20617070726f76656420717565727920666f72206e6f6e657860008201527f697374656e7420746f6b656e0000000000000000000000000000000000000000602082015250565b7f4f776e61626c653a2063616c6c6572206973206e6f7420746865206f776e6572600082015250565b7f4552433732314d657461646174613a2055524920717565727920666f72206e6f60008201527f6e6578697374656e7420746f6b656e0000000000000000000000000000000000602082015250565b7f4552433732313a20617070726f76616c20746f2063757272656e74206f776e6560008201527f7200000000000000000000000000000000000000000000000000000000000000602082015250565b7f4552433732313a207472616e736665722063616c6c6572206973206e6f74206f60008201527f776e6572206e6f7220617070726f766564000000000000000000000000000000602082015250565b7f416464726573733a2063616c6c20746f206e6f6e2d636f6e7472616374000000600082015250565b7f436f726e4669204e46543a20557365722063616e206f6e6c79206d696e74206f60008201527f6e63650000000000000000000000000000000000000000000000000000000000602082015250565b7f5361666545524332303a204552433230206f7065726174696f6e20646964206e60008201527f6f74207375636365656400000000000000000000000000000000000000000000602082015250565b613a1981613203565b8114613a2457600080fd5b50565b613a3081613215565b8114613a3b57600080fd5b50565b613a4781613221565b8114613a5257600080fd5b50565b613a5e8161326d565b8114613a6957600080fd5b5056fea2646970667358221220a13c9e5b9adc30015cbb1cd4154d24fb98f355377a2162babd4f39cc0c09e83964736f6c63430008040033",
  "linkReferences": {},
  "deployedLinkReferences": {}
}