{
  "_format": "hh-sol-artifact-1",
  "contractName": "CFNFT",
  "sourceName": "contracts/CFNT.sol",
  "abi": [
    {
      "inputs": [
        {
          "internalType": "string",
          "name": "_name",
          "type": "string"
        },
        {
          "internalType": "string",
          "name": "_symbol",
          "type": "string"
        },
        {
          "internalType": "uint256",
          "name": "_maxSupply",
          "type": "uint256"
        },
        {
          "internalType": "string",
          "name": "_base_URI",
          "type": "string"
        },
        {
          "internalType": "address",
          "name": "_treasuryAddress",
          "type": "address"
        },
        {
          "internalType": "address",
          "name": "_devAddress",
          "type": "address"
        },
        {
          "internalType": "uint256",
          "name": "_treasuryFee",
          "type": "uint256"
        },
        {
          "internalType": "uint256",
          "name": "_devFee",
          "type": "uint256"
        }
      ],
      "stateMutability": "nonpayable",
      "type": "constructor"
    },
    {
      "anonymous": false,
      "inputs": [
        {
          "indexed": true,
          "internalType": "address",
          "name": "owner",
          "type": "address"
        },
        {
          "indexed": true,
          "internalType": "address",
          "name": "approved",
          "type": "address"
        },
        {
          "indexed": true,
          "internalType": "uint256",
          "name": "tokenId",
          "type": "uint256"
        }
      ],
      "name": "Approval",
      "type": "event"
    },
    {
      "anonymous": false,
      "inputs": [
        {
          "indexed": true,
          "internalType": "address",
          "name": "owner",
          "type": "address"
        },
        {
          "indexed": true,
          "internalType": "address",
          "name": "operator",
          "type": "address"
        },
        {
          "indexed": false,
          "internalType": "bool",
          "name": "approved",
          "type": "bool"
        }
      ],
      "name": "ApprovalForAll",
      "type": "event"
    },
    {
      "anonymous": false,
      "inputs": [
        {
          "indexed": true,
          "internalType": "address",
          "name": "previousOwner",
          "type": "address"
        },
        {
          "indexed": true,
          "internalType": "address",
          "name": "newOwner",
          "type": "address"
        }
      ],
      "name": "OwnershipTransferred",
      "type": "event"
    },
    {
      "anonymous": false,
      "inputs": [
        {
          "indexed": false,
          "internalType": "address",
          "name": "account",
          "type": "address"
        }
      ],
      "name": "Paused",
      "type": "event"
    },
    {
      "anonymous": false,
      "inputs": [
        {
          "indexed": true,
          "internalType": "address",
          "name": "from",
          "type": "address"
        },
        {
          "indexed": true,
          "internalType": "address",
          "name": "to",
          "type": "address"
        },
        {
          "indexed": true,
          "internalType": "uint256",
          "name": "tokenId",
          "type": "uint256"
        }
      ],
      "name": "Transfer",
      "type": "event"
    },
    {
      "anonymous": false,
      "inputs": [
        {
          "indexed": false,
          "internalType": "address",
          "name": "account",
          "type": "address"
        }
      ],
      "name": "Unpaused",
      "type": "event"
    },
    {
      "inputs": [],
      "name": "DEV_ADDRESS",
      "outputs": [
        {
          "internalType": "address",
          "name": "",
          "type": "address"
        }
      ],
      "stateMutability": "view",
      "type": "function"
    },
    {
      "inputs": [],
      "name": "DEV_FEE",
      "outputs": [
        {
          "internalType": "uint256",
          "name": "",
          "type": "uint256"
        }
      ],
      "stateMutability": "view",
      "type": "function"
    },
    {
      "inputs": [],
      "name": "MAX_SUPPLY",
      "outputs": [
        {
          "internalType": "uint256",
          "name": "",
          "type": "uint256"
        }
      ],
      "stateMutability": "view",
      "type": "function"
    },
    {
      "inputs": [],
      "name": "TREASURY_ADDRESS",
      "outputs": [
        {
          "internalType": "address",
          "name": "",
          "type": "address"
        }
      ],
      "stateMutability": "view",
      "type": "function"
    },
    {
      "inputs": [],
      "name": "TREASURY_FEE",
      "outputs": [
        {
          "internalType": "uint256",
          "name": "",
          "type": "uint256"
        }
      ],
      "stateMutability": "view",
      "type": "function"
    },
    {
      "inputs": [
        {
          "internalType": "address",
          "name": "to",
          "type": "address"
        },
        {
          "internalType": "uint256",
          "name": "tokenId",
          "type": "uint256"
        }
      ],
      "name": "approve",
      "outputs": [],
      "stateMutability": "nonpayable",
      "type": "function"
    },
    {
      "inputs": [
        {
          "internalType": "address",
          "name": "owner",
          "type": "address"
        }
      ],
      "name": "balanceOf",
      "outputs": [
        {
          "internalType": "uint256",
          "name": "",
          "type": "uint256"
        }
      ],
      "stateMutability": "view",
      "type": "function"
    },
    {
      "inputs": [
        {
          "internalType": "uint256",
          "name": "tokenId",
          "type": "uint256"
        }
      ],
      "name": "getApproved",
      "outputs": [
        {
          "internalType": "address",
          "name": "",
          "type": "address"
        }
      ],
      "stateMutability": "view",
      "type": "function"
    },
    {
      "inputs": [
        {
          "internalType": "address",
          "name": "owner",
          "type": "address"
        },
        {
          "internalType": "address",
          "name": "operator",
          "type": "address"
        }
      ],
      "name": "isApprovedForAll",
      "outputs": [
        {
          "internalType": "bool",
          "name": "",
          "type": "bool"
        }
      ],
      "stateMutability": "view",
      "type": "function"
    },
    {
      "inputs": [],
      "name": "mint",
      "outputs": [
        {
          "internalType": "uint256",
          "name": "",
          "type": "uint256"
        }
      ],
      "stateMutability": "payable",
      "type": "function"
    },
    {
      "inputs": [],
      "name": "name",
      "outputs": [
        {
          "internalType": "string",
          "name": "",
          "type": "string"
        }
      ],
      "stateMutability": "view",
      "type": "function"
    },
    {
      "inputs": [
        {
          "internalType": "address",
          "name": "",
          "type": "address"
        }
      ],
      "name": "nftOwners",
      "outputs": [
        {
          "internalType": "bool",
          "name": "",
          "type": "bool"
        }
      ],
      "stateMutability": "view",
      "type": "function"
    },
    {
      "inputs": [],
      "name": "owner",
      "outputs": [
        {
          "internalType": "address",
          "name": "",
          "type": "address"
        }
      ],
      "stateMutability": "view",
      "type": "function"
    },
    {
      "inputs": [
        {
          "internalType": "uint256",
          "name": "tokenId",
          "type": "uint256"
        }
      ],
      "name": "ownerOf",
      "outputs": [
        {
          "internalType": "address",
          "name": "",
          "type": "address"
        }
      ],
      "stateMutability": "view",
      "type": "function"
    },
    {
      "inputs": [],
      "name": "pause",
      "outputs": [],
      "stateMutability": "nonpayable",
      "type": "function"
    },
    {
      "inputs": [],
      "name": "paused",
      "outputs": [
        {
          "internalType": "bool",
          "name": "",
          "type": "bool"
        }
      ],
      "stateMutability": "view",
      "type": "function"
    },
    {
      "inputs": [],
      "name": "renounceOwnership",
      "outputs": [],
      "stateMutability": "nonpayable",
      "type": "function"
    },
    {
      "inputs": [
        {
          "internalType": "address",
          "name": "from",
          "type": "address"
        },
        {
          "internalType": "address",
          "name": "to",
          "type": "address"
        },
        {
          "internalType": "uint256",
          "name": "tokenId",
          "type": "uint256"
        }
      ],
      "name": "safeTransferFrom",
      "outputs": [],
      "stateMutability": "nonpayable",
      "type": "function"
    },
    {
      "inputs": [
        {
          "internalType": "address",
          "name": "from",
          "type": "address"
        },
        {
          "internalType": "address",
          "name": "to",
          "type": "address"
        },
        {
          "internalType": "uint256",
          "name": "tokenId",
          "type": "uint256"
        },
        {
          "internalType": "bytes",
          "name": "_data",
          "type": "bytes"
        }
      ],
      "name": "safeTransferFrom",
      "outputs": [],
      "stateMutability": "nonpayable",
      "type": "function"
    },
    {
      "inputs": [
        {
          "internalType": "address",
          "name": "operator",
          "type": "address"
        },
        {
          "internalType": "bool",
          "name": "approved",
          "type": "bool"
        }
      ],
      "name": "setApprovalForAll",
      "outputs": [],
      "stateMutability": "nonpayable",
      "type": "function"
    },
    {
      "inputs": [
        {
          "internalType": "bytes4",
          "name": "interfaceId",
          "type": "bytes4"
        }
      ],
      "name": "supportsInterface",
      "outputs": [
        {
          "internalType": "bool",
          "name": "",
          "type": "bool"
        }
      ],
      "stateMutability": "view",
      "type": "function"
    },
    {
      "inputs": [],
      "name": "symbol",
      "outputs": [
        {
          "internalType": "string",
          "name": "",
          "type": "string"
        }
      ],
      "stateMutability": "view",
      "type": "function"
    },
    {
      "inputs": [
        {
          "internalType": "uint256",
          "name": "tokenId",
          "type": "uint256"
        }
      ],
      "name": "tokenURI",
      "outputs": [
        {
          "internalType": "string",
          "name": "",
          "type": "string"
        }
      ],
      "stateMutability": "view",
      "type": "function"
    },
    {
      "inputs": [],
      "name": "totalSupply",
      "outputs": [
        {
          "internalType": "uint256",
          "name": "",
          "type": "uint256"
        }
      ],
      "stateMutability": "view",
      "type": "function"
    },
    {
      "inputs": [
        {
          "internalType": "address",
          "name": "from",
          "type": "address"
        },
        {
          "internalType": "address",
          "name": "to",
          "type": "address"
        },
        {
          "internalType": "uint256",
          "name": "tokenId",
          "type": "uint256"
        }
      ],
      "name": "transferFrom",
      "outputs": [],
      "stateMutability": "nonpayable",
      "type": "function"
    },
    {
      "inputs": [
        {
          "internalType": "address",
          "name": "newOwner",
          "type": "address"
        }
      ],
      "name": "transferOwnership",
      "outputs": [],
      "stateMutability": "nonpayable",
      "type": "function"
    },
    {
      "inputs": [],
      "name": "unpause",
      "outputs": [],
      "stateMutability": "nonpayable",
      "type": "function"
    },
    {
      "inputs": [
        {
          "internalType": "string",
          "name": "_newURI",
          "type": "string"
        }
      ],
      "name": "updateURI",
      "outputs": [],
      "stateMutability": "nonpayable",
      "type": "function"
    }
  ],
  "bytecode": "0x6101206040523480156200001257600080fd5b5060405162003fc638038062003fc683398181016040528101906200003891906200037d565b87878160009080519060200190620000529291906200022d565b5080600190805190602001906200006b9291906200022d565b5050506000600660006101000a81548160ff021916908315150217905550620000a96200009d6200015f60201b60201c565b6200016760201b60201c565b600160078190555085608081815250508460089080519060200190620000d19291906200022d565b508373ffffffffffffffffffffffffffffffffffffffff1660a08173ffffffffffffffffffffffffffffffffffffffff1660601b815250508273ffffffffffffffffffffffffffffffffffffffff1660c08173ffffffffffffffffffffffffffffffffffffffff1660601b815250508160e0818152505080610100818152505050505050505050506200066d565b600033905090565b6000600660019054906101000a900473ffffffffffffffffffffffffffffffffffffffff16905081600660016101000a81548173ffffffffffffffffffffffffffffffffffffffff021916908373ffffffffffffffffffffffffffffffffffffffff1602179055508173ffffffffffffffffffffffffffffffffffffffff168173ffffffffffffffffffffffffffffffffffffffff167f8be0079c531659141344cd1fd0a4f28419497f9722a3daafe3b4186f6b6457e060405160405180910390a35050565b8280546200023b906200055e565b90600052602060002090601f0160209004810192826200025f5760008555620002ab565b82601f106200027a57805160ff1916838001178555620002ab565b82800160010185558215620002ab579182015b82811115620002aa5782518255916020019190600101906200028d565b5b509050620002ba9190620002be565b5090565b5b80821115620002d9576000816000905550600101620002bf565b5090565b6000620002f4620002ee84620004b4565b6200048b565b9050828152602081018484840111156200030d57600080fd5b6200031a84828562000528565b509392505050565b600081519050620003338162000639565b92915050565b600082601f8301126200034b57600080fd5b81516200035d848260208601620002dd565b91505092915050565b600081519050620003778162000653565b92915050565b600080600080600080600080610100898b0312156200039b57600080fd5b600089015167ffffffffffffffff811115620003b657600080fd5b620003c48b828c0162000339565b985050602089015167ffffffffffffffff811115620003e257600080fd5b620003f08b828c0162000339565b9750506040620004038b828c0162000366565b965050606089015167ffffffffffffffff8111156200042157600080fd5b6200042f8b828c0162000339565b9550506080620004428b828c0162000322565b94505060a0620004558b828c0162000322565b93505060c0620004688b828c0162000366565b92505060e06200047b8b828c0162000366565b9150509295985092959890939650565b600062000497620004aa565b9050620004a5828262000594565b919050565b6000604051905090565b600067ffffffffffffffff821115620004d257620004d1620005f9565b5b620004dd8262000628565b9050602081019050919050565b6000620004f782620004fe565b9050919050565b600073ffffffffffffffffffffffffffffffffffffffff82169050919050565b6000819050919050565b60005b83811015620005485780820151818401526020810190506200052b565b8381111562000558576000848401525b50505050565b600060028204905060018216806200057757607f821691505b602082108114156200058e576200058d620005ca565b5b50919050565b6200059f8262000628565b810181811067ffffffffffffffff82111715620005c157620005c0620005f9565b5b80604052505050565b7f4e487b7100000000000000000000000000000000000000000000000000000000600052602260045260246000fd5b7f4e487b7100000000000000000000000000000000000000000000000000000000600052604160045260246000fd5b6000601f19601f8301169050919050565b6200064481620004ea565b81146200065057600080fd5b50565b6200065e816200051e565b81146200066a57600080fd5b50565b60805160a05160601c60c05160601c60e051610100516138dd620006e960003960008181610af601528181610c6c0152610f46015260008181610b1701528181610bc0015261121d015260008181610c350152610f6a01526000818161080d0152610b89015260008181610d8c0152610e7c01526138dd6000f3fe6080604052600436106101b75760003560e01c80636352211e116100ec578063a22cb4651161008a578063c87b56dd11610064578063c87b56dd146105b7578063cf9b2d89146105f4578063e985e9c514610631578063f2fde38b1461066e576101b7565b8063a22cb4651461053c578063b88d4fde14610565578063c30f4a5a1461058e576101b7565b80638456cb59116100c65780638456cb59146104a45780638ce1a483146104bb5780638da5cb5b146104e657806395d89b4114610511576101b7565b80636352211e1461041357806370a0823114610450578063715018a61461048d576101b7565b806323b872dd1161015957806342842e0e1161013357806342842e0e14610369578063436a88c1146103925780635639e8cf146103bd5780635c975abb146103e8576101b7565b806323b872dd146102fe57806332cb6b0c146103275780633f4ba83a14610352576101b7565b8063081812fc11610195578063081812fc1461024f578063095ea7b31461028c5780631249c58b146102b557806318160ddd146102d3576101b7565b806301ffc9a7146101bc57806306fdde03146101f957806307604b1a14610224575b600080fd5b3480156101c857600080fd5b506101e360048036038101906101de9190612700565b610697565b6040516101f09190612c1f565b60405180910390f35b34801561020557600080fd5b5061020e610779565b60405161021b9190612c3a565b60405180910390f35b34801561023057600080fd5b5061023961080b565b6040516102469190612bb8565b60405180910390f35b34801561025b57600080fd5b5061027660048036038101906102719190612793565b61082f565b6040516102839190612bb8565b60405180910390f35b34801561029857600080fd5b506102b360048036038101906102ae91906126c4565b6108b4565b005b6102bd6109cc565b6040516102ca9190612f3c565b60405180910390f35b3480156102df57600080fd5b506102e8610e14565b6040516102f59190612f3c565b60405180910390f35b34801561030a57600080fd5b50610325600480360381019061032091906125be565b610e1a565b005b34801561033357600080fd5b5061033c610e7a565b6040516103499190612f3c565b60405180910390f35b34801561035e57600080fd5b50610367610e9e565b005b34801561037557600080fd5b50610390600480360381019061038b91906125be565b610f24565b005b34801561039e57600080fd5b506103a7610f44565b6040516103b49190612f3c565b60405180910390f35b3480156103c957600080fd5b506103d2610f68565b6040516103df9190612bb8565b60405180910390f35b3480156103f457600080fd5b506103fd610f8c565b60405161040a9190612c1f565b60405180910390f35b34801561041f57600080fd5b5061043a60048036038101906104359190612793565b610fa3565b6040516104479190612bb8565b60405180910390f35b34801561045c57600080fd5b5061047760048036038101906104729190612559565b611055565b6040516104849190612f3c565b60405180910390f35b34801561049957600080fd5b506104a261110d565b005b3480156104b057600080fd5b506104b9611195565b005b3480156104c757600080fd5b506104d061121b565b6040516104dd9190612f3c565b60405180910390f35b3480156104f257600080fd5b506104fb61123f565b6040516105089190612bb8565b60405180910390f35b34801561051d57600080fd5b50610526611269565b6040516105339190612c3a565b60405180910390f35b34801561054857600080fd5b50610563600480360381019061055e9190612688565b6112fb565b005b34801561057157600080fd5b5061058c6004803603810190610587919061260d565b611311565b005b34801561059a57600080fd5b506105b560048036038101906105b09190612752565b611373565b005b3480156105c357600080fd5b506105de60048036038101906105d99190612793565b611409565b6040516105eb9190612c3a565b60405180910390f35b34801561060057600080fd5b5061061b60048036038101906106169190612559565b611462565b6040516106289190612c1f565b60405180910390f35b34801561063d57600080fd5b5061065860048036038101906106539190612582565b611482565b6040516106659190612c1f565b60405180910390f35b34801561067a57600080fd5b5061069560048036038101906106909190612559565b611516565b005b60007f80ac58cd000000000000000000000000000000000000000000000000000000007bffffffffffffffffffffffffffffffffffffffffffffffffffffffff1916827bffffffffffffffffffffffffffffffffffffffffffffffffffffffff1916148061076257507f5b5e139f000000000000000000000000000000000000000000000000000000007bffffffffffffffffffffffffffffffffffffffffffffffffffffffff1916827bffffffffffffffffffffffffffffffffffffffffffffffffffffffff1916145b8061077257506107718261160e565b5b9050919050565b60606000805461078890613161565b80601f01602080910402602001604051908101604052809291908181526020018280546107b490613161565b80156108015780601f106107d657610100808354040283529160200191610801565b820191906000526020600020905b8154815290600101906020018083116107e457829003601f168201915b5050505050905090565b7f000000000000000000000000000000000000000000000000000000000000000081565b600061083a82611678565b610879576040517f08c379a000000000000000000000000000000000000000000000000000000000815260040161087090612e1c565b60405180910390fd5b6004600083815260200190815260200160002060009054906101000a900473ffffffffffffffffffffffffffffffffffffffff169050919050565b60006108bf82610fa3565b90508073ffffffffffffffffffffffffffffffffffffffff168373ffffffffffffffffffffffffffffffffffffffff161415610930576040517f08c379a000000000000000000000000000000000000000000000000000000000815260040161092790612e9c565b60405180910390fd5b8073ffffffffffffffffffffffffffffffffffffffff1661094f6116e4565b73ffffffffffffffffffffffffffffffffffffffff16148061097e575061097d816109786116e4565b611482565b5b6109bd576040517f08c379a00000000000000000000000000000000000000000000000000000000081526004016109b490612d9c565b60405180910390fd5b6109c783836116ec565b505050565b60006109d6610f8c565b15610a16576040517f08c379a0000000000000000000000000000000000000000000000000000000008152600401610a0d90612d7c565b60405180910390fd5b60026007541415610a5c576040517f08c379a0000000000000000000000000000000000000000000000000000000008152600401610a5390612f1c565b60405180910390fd5b6002600781905550600a60003373ffffffffffffffffffffffffffffffffffffffff1673ffffffffffffffffffffffffffffffffffffffff16815260200190815260200160002060009054906101000a900460ff1615610af1576040517f08c379a0000000000000000000000000000000000000000000000000000000008152600401610ae890612efc565b60405180910390fd5b610b447f00000000000000000000000000000000000000000000000000000000000000007f00000000000000000000000000000000000000000000000000000000000000006117a590919063ffffffff16565b3414610b85576040517f08c379a0000000000000000000000000000000000000000000000000000000008152600401610b7c90612e7c565b60405180910390fd5b60007f000000000000000000000000000000000000000000000000000000000000000073ffffffffffffffffffffffffffffffffffffffff167f0000000000000000000000000000000000000000000000000000000000000000604051610beb90612ba3565b60006040518083038185875af1925050503d8060008114610c28576040519150601f19603f3d011682016040523d82523d6000602084013e610c2d565b606091505b5050905060007f000000000000000000000000000000000000000000000000000000000000000073ffffffffffffffffffffffffffffffffffffffff167f0000000000000000000000000000000000000000000000000000000000000000604051610c9790612ba3565b60006040518083038185875af1925050503d8060008114610cd4576040519150601f19603f3d011682016040523d82523d6000602084013e610cd9565b606091505b50509050818015610ce75750805b610d26576040517f08c379a0000000000000000000000000000000000000000000000000000000008152600401610d1d90612ebc565b60405180910390fd5b610d32336009546117bb565b6001600a60003373ffffffffffffffffffffffffffffffffffffffff1673ffffffffffffffffffffffffffffffffffffffff16815260200190815260200160002060006101000a81548160ff0219169083151502179055507f000000000000000000000000000000000000000000000000000000000000000060095410610dee576040517f08c379a0000000000000000000000000000000000000000000000000000000008152600401610de590612d5c565b60405180910390fd5b60096000815480929190610e01906131c4565b9190505592505050600160078190555090565b60095481565b610e2b610e256116e4565b826117d9565b610e6a576040517f08c379a0000000000000000000000000000000000000000000000000000000008152600401610e6190612edc565b60405180910390fd5b610e758383836118b7565b505050565b7f000000000000000000000000000000000000000000000000000000000000000081565b610ea66116e4565b73ffffffffffffffffffffffffffffffffffffffff16610ec461123f565b73ffffffffffffffffffffffffffffffffffffffff1614610f1a576040517f08c379a0000000000000000000000000000000000000000000000000000000008152600401610f1190612e3c565b60405180910390fd5b610f22611b1e565b565b610f3f83838360405180602001604052806000815250611311565b505050565b7f000000000000000000000000000000000000000000000000000000000000000081565b7f000000000000000000000000000000000000000000000000000000000000000081565b6000600660009054906101000a900460ff16905090565b6000806002600084815260200190815260200160002060009054906101000a900473ffffffffffffffffffffffffffffffffffffffff169050600073ffffffffffffffffffffffffffffffffffffffff168173ffffffffffffffffffffffffffffffffffffffff16141561104c576040517f08c379a000000000000000000000000000000000000000000000000000000000815260040161104390612ddc565b60405180910390fd5b80915050919050565b60008073ffffffffffffffffffffffffffffffffffffffff168273ffffffffffffffffffffffffffffffffffffffff1614156110c6576040517f08c379a00000000000000000000000000000000000000000000000000000000081526004016110bd90612dbc565b60405180910390fd5b600360008373ffffffffffffffffffffffffffffffffffffffff1673ffffffffffffffffffffffffffffffffffffffff168152602001908152602001600020549050919050565b6111156116e4565b73ffffffffffffffffffffffffffffffffffffffff1661113361123f565b73ffffffffffffffffffffffffffffffffffffffff1614611189576040517f08c379a000000000000000000000000000000000000000000000000000000000815260040161118090612e3c565b60405180910390fd5b6111936000611bc0565b565b61119d6116e4565b73ffffffffffffffffffffffffffffffffffffffff166111bb61123f565b73ffffffffffffffffffffffffffffffffffffffff1614611211576040517f08c379a000000000000000000000000000000000000000000000000000000000815260040161120890612e3c565b60405180910390fd5b611219611c86565b565b7f000000000000000000000000000000000000000000000000000000000000000081565b6000600660019054906101000a900473ffffffffffffffffffffffffffffffffffffffff16905090565b60606001805461127890613161565b80601f01602080910402602001604051908101604052809291908181526020018280546112a490613161565b80156112f15780601f106112c6576101008083540402835291602001916112f1565b820191906000526020600020905b8154815290600101906020018083116112d457829003601f168201915b5050505050905090565b61130d6113066116e4565b8383611d29565b5050565b61132261131c6116e4565b836117d9565b611361576040517f08c379a000000000000000000000000000000000000000000000000000000000815260040161135890612edc565b60405180910390fd5b61136d84848484611e96565b50505050565b61137b6116e4565b73ffffffffffffffffffffffffffffffffffffffff1661139961123f565b73ffffffffffffffffffffffffffffffffffffffff16146113ef576040517f08c379a00000000000000000000000000000000000000000000000000000000081526004016113e690612e3c565b60405180910390fd5b806008908051906020019061140592919061237d565b5050565b606061141482611678565b611453576040517f08c379a000000000000000000000000000000000000000000000000000000000815260040161144a90612e5c565b60405180910390fd5b61145b611ef2565b9050919050565b600a6020528060005260406000206000915054906101000a900460ff1681565b6000600560008473ffffffffffffffffffffffffffffffffffffffff1673ffffffffffffffffffffffffffffffffffffffff16815260200190815260200160002060008373ffffffffffffffffffffffffffffffffffffffff1673ffffffffffffffffffffffffffffffffffffffff16815260200190815260200160002060009054906101000a900460ff16905092915050565b61151e6116e4565b73ffffffffffffffffffffffffffffffffffffffff1661153c61123f565b73ffffffffffffffffffffffffffffffffffffffff1614611592576040517f08c379a000000000000000000000000000000000000000000000000000000000815260040161158990612e3c565b60405180910390fd5b600073ffffffffffffffffffffffffffffffffffffffff168173ffffffffffffffffffffffffffffffffffffffff161415611602576040517f08c379a00000000000000000000000000000000000000000000000000000000081526004016115f990612c9c565b60405180910390fd5b61160b81611bc0565b50565b60007f01ffc9a7000000000000000000000000000000000000000000000000000000007bffffffffffffffffffffffffffffffffffffffffffffffffffffffff1916827bffffffffffffffffffffffffffffffffffffffffffffffffffffffff1916149050919050565b60008073ffffffffffffffffffffffffffffffffffffffff166002600084815260200190815260200160002060009054906101000a900473ffffffffffffffffffffffffffffffffffffffff1673ffffffffffffffffffffffffffffffffffffffff1614159050919050565b600033905090565b816004600083815260200190815260200160002060006101000a81548173ffffffffffffffffffffffffffffffffffffffff021916908373ffffffffffffffffffffffffffffffffffffffff160217905550808273ffffffffffffffffffffffffffffffffffffffff1661175f83610fa3565b73ffffffffffffffffffffffffffffffffffffffff167f8c5be1e5ebec7d5bd14f71427d1e84f3dd0314c0f7b2291e5b200ac8c7c3b92560405160405180910390a45050565b600081836117b39190613021565b905092915050565b6117d5828260405180602001604052806000815250611f84565b5050565b60006117e482611678565b611823576040517f08c379a000000000000000000000000000000000000000000000000000000000815260040161181a90612d3c565b60405180910390fd5b600061182e83610fa3565b90508073ffffffffffffffffffffffffffffffffffffffff168473ffffffffffffffffffffffffffffffffffffffff16148061189d57508373ffffffffffffffffffffffffffffffffffffffff166118858461082f565b73ffffffffffffffffffffffffffffffffffffffff16145b806118ae57506118ad8185611482565b5b91505092915050565b8273ffffffffffffffffffffffffffffffffffffffff166118d782610fa3565b73ffffffffffffffffffffffffffffffffffffffff161461192d576040517f08c379a000000000000000000000000000000000000000000000000000000000815260040161192490612cbc565b60405180910390fd5b600073ffffffffffffffffffffffffffffffffffffffff168273ffffffffffffffffffffffffffffffffffffffff16141561199d576040517f08c379a000000000000000000000000000000000000000000000000000000000815260040161199490612cfc565b60405180910390fd5b6119a8838383611fdf565b6119b36000826116ec565b6001600360008573ffffffffffffffffffffffffffffffffffffffff1673ffffffffffffffffffffffffffffffffffffffff1681526020019081526020016000206000828254611a039190613077565b925050819055506001600360008473ffffffffffffffffffffffffffffffffffffffff1673ffffffffffffffffffffffffffffffffffffffff1681526020019081526020016000206000828254611a5a9190613021565b92505081905550816002600083815260200190815260200160002060006101000a81548173ffffffffffffffffffffffffffffffffffffffff021916908373ffffffffffffffffffffffffffffffffffffffff160217905550808273ffffffffffffffffffffffffffffffffffffffff168473ffffffffffffffffffffffffffffffffffffffff167fddf252ad1be2c89b69c2b068fc378daa952ba7f163c4a11628f55a4df523b3ef60405160405180910390a4611b19838383611fe4565b505050565b611b26610f8c565b611b65576040517f08c379a0000000000000000000000000000000000000000000000000000000008152600401611b5c90612c5c565b60405180910390fd5b6000600660006101000a81548160ff0219169083151502179055507f5db9ee0a495bf2e6ff9c91a7834c1ba4fdd244a5e8aa4e537bd38aeae4b073aa611ba96116e4565b604051611bb69190612bb8565b60405180910390a1565b6000600660019054906101000a900473ffffffffffffffffffffffffffffffffffffffff16905081600660016101000a81548173ffffffffffffffffffffffffffffffffffffffff021916908373ffffffffffffffffffffffffffffffffffffffff1602179055508173ffffffffffffffffffffffffffffffffffffffff168173ffffffffffffffffffffffffffffffffffffffff167f8be0079c531659141344cd1fd0a4f28419497f9722a3daafe3b4186f6b6457e060405160405180910390a35050565b611c8e610f8c565b15611cce576040517f08c379a0000000000000000000000000000000000000000000000000000000008152600401611cc590612d7c565b60405180910390fd5b6001600660006101000a81548160ff0219169083151502179055507f62e78cea01bee320cd4e420270b5ea74000d11b0c9f74754ebdbfc544b05a258611d126116e4565b604051611d1f9190612bb8565b60405180910390a1565b8173ffffffffffffffffffffffffffffffffffffffff168373ffffffffffffffffffffffffffffffffffffffff161415611d98576040517f08c379a0000000000000000000000000000000000000000000000000000000008152600401611d8f90612d1c565b60405180910390fd5b80600560008573ffffffffffffffffffffffffffffffffffffffff1673ffffffffffffffffffffffffffffffffffffffff16815260200190815260200160002060008473ffffffffffffffffffffffffffffffffffffffff1673ffffffffffffffffffffffffffffffffffffffff16815260200190815260200160002060006101000a81548160ff0219169083151502179055508173ffffffffffffffffffffffffffffffffffffffff168373ffffffffffffffffffffffffffffffffffffffff167f17307eab39ab6107e8899845ad3d59bd9653f200f220920489ca2b5937696c3183604051611e899190612c1f565b60405180910390a3505050565b611ea18484846118b7565b611ead84848484611fe9565b611eec576040517f08c379a0000000000000000000000000000000000000000000000000000000008152600401611ee390612c7c565b60405180910390fd5b50505050565b606060088054611f0190613161565b80601f0160208091040260200160405190810160405280929190818152602001828054611f2d90613161565b8015611f7a5780601f10611f4f57610100808354040283529160200191611f7a565b820191906000526020600020905b815481529060010190602001808311611f5d57829003601f168201915b5050505050905090565b611f8e8383612180565b611f9b6000848484611fe9565b611fda576040517f08c379a0000000000000000000000000000000000000000000000000000000008152600401611fd190612c7c565b60405180910390fd5b505050565b505050565b505050565b600061200a8473ffffffffffffffffffffffffffffffffffffffff1661235a565b15612173578373ffffffffffffffffffffffffffffffffffffffff1663150b7a026120336116e4565b8786866040518563ffffffff1660e01b81526004016120559493929190612bd3565b602060405180830381600087803b15801561206f57600080fd5b505af19250505080156120a057506040513d601f19601f8201168201806040525081019061209d9190612729565b60015b612123573d80600081146120d0576040519150601f19603f3d011682016040523d82523d6000602084013e6120d5565b606091505b5060008151141561211b576040517f08c379a000000000000000000000000000000000000000000000000000000000815260040161211290612c7c565b60405180910390fd5b805181602001fd5b63150b7a0260e01b7bffffffffffffffffffffffffffffffffffffffffffffffffffffffff1916817bffffffffffffffffffffffffffffffffffffffffffffffffffffffff191614915050612178565b600190505b949350505050565b600073ffffffffffffffffffffffffffffffffffffffff168273ffffffffffffffffffffffffffffffffffffffff1614156121f0576040517f08c379a00000000000000000000000000000000000000000000000000000000081526004016121e790612dfc565b60405180910390fd5b6121f981611678565b15612239576040517f08c379a000000000000000000000000000000000000000000000000000000000815260040161223090612cdc565b60405180910390fd5b61224560008383611fdf565b6001600360008473ffffffffffffffffffffffffffffffffffffffff1673ffffffffffffffffffffffffffffffffffffffff16815260200190815260200160002060008282546122959190613021565b92505081905550816002600083815260200190815260200160002060006101000a81548173ffffffffffffffffffffffffffffffffffffffff021916908373ffffffffffffffffffffffffffffffffffffffff160217905550808273ffffffffffffffffffffffffffffffffffffffff16600073ffffffffffffffffffffffffffffffffffffffff167fddf252ad1be2c89b69c2b068fc378daa952ba7f163c4a11628f55a4df523b3ef60405160405180910390a461235660008383611fe4565b5050565b6000808273ffffffffffffffffffffffffffffffffffffffff163b119050919050565b82805461238990613161565b90600052602060002090601f0160209004810192826123ab57600085556123f2565b82601f106123c457805160ff19168380011785556123f2565b828001600101855582156123f2579182015b828111156123f15782518255916020019190600101906123d6565b5b5090506123ff9190612403565b5090565b5b8082111561241c576000816000905550600101612404565b5090565b600061243361242e84612f7c565b612f57565b90508281526020810184848401111561244b57600080fd5b61245684828561311f565b509392505050565b600061247161246c84612fad565b612f57565b90508281526020810184848401111561248957600080fd5b61249484828561311f565b509392505050565b6000813590506124ab8161384b565b92915050565b6000813590506124c081613862565b92915050565b6000813590506124d581613879565b92915050565b6000815190506124ea81613879565b92915050565b600082601f83011261250157600080fd5b8135612511848260208601612420565b91505092915050565b600082601f83011261252b57600080fd5b813561253b84826020860161245e565b91505092915050565b60008135905061255381613890565b92915050565b60006020828403121561256b57600080fd5b60006125798482850161249c565b91505092915050565b6000806040838503121561259557600080fd5b60006125a38582860161249c565b92505060206125b48582860161249c565b9150509250929050565b6000806000606084860312156125d357600080fd5b60006125e18682870161249c565b93505060206125f28682870161249c565b925050604061260386828701612544565b9150509250925092565b6000806000806080858703121561262357600080fd5b60006126318782880161249c565b94505060206126428782880161249c565b935050604061265387828801612544565b925050606085013567ffffffffffffffff81111561267057600080fd5b61267c878288016124f0565b91505092959194509250565b6000806040838503121561269b57600080fd5b60006126a98582860161249c565b92505060206126ba858286016124b1565b9150509250929050565b600080604083850312156126d757600080fd5b60006126e58582860161249c565b92505060206126f685828601612544565b9150509250929050565b60006020828403121561271257600080fd5b6000612720848285016124c6565b91505092915050565b60006020828403121561273b57600080fd5b6000612749848285016124db565b91505092915050565b60006020828403121561276457600080fd5b600082013567ffffffffffffffff81111561277e57600080fd5b61278a8482850161251a565b91505092915050565b6000602082840312156127a557600080fd5b60006127b384828501612544565b91505092915050565b6127c5816130ab565b82525050565b6127d4816130bd565b82525050565b60006127e582612fde565b6127ef8185612ff4565b93506127ff81856020860161312e565b6128088161329a565b840191505092915050565b600061281e82612fe9565b6128288185613010565b935061283881856020860161312e565b6128418161329a565b840191505092915050565b6000612859601483613010565b9150612864826132ab565b602082019050919050565b600061287c603283613010565b9150612887826132d4565b604082019050919050565b600061289f602683613010565b91506128aa82613323565b604082019050919050565b60006128c2602583613010565b91506128cd82613372565b604082019050919050565b60006128e5601c83613010565b91506128f0826133c1565b602082019050919050565b6000612908602483613010565b9150612913826133ea565b604082019050919050565b600061292b601983613010565b915061293682613439565b602082019050919050565b600061294e602c83613010565b915061295982613462565b604082019050919050565b6000612971601e83613010565b915061297c826134b1565b602082019050919050565b6000612994601083613010565b915061299f826134da565b602082019050919050565b60006129b7603883613010565b91506129c282613503565b604082019050919050565b60006129da602a83613010565b91506129e582613552565b604082019050919050565b60006129fd602983613010565b9150612a08826135a1565b604082019050919050565b6000612a20602083613010565b9150612a2b826135f0565b602082019050919050565b6000612a43602c83613010565b9150612a4e82613619565b604082019050919050565b6000612a66602083613010565b9150612a7182613668565b602082019050919050565b6000612a89602f83613010565b9150612a9482613691565b604082019050919050565b6000612aac601e83613010565b9150612ab7826136e0565b602082019050919050565b6000612acf602183613010565b9150612ada82613709565b604082019050919050565b6000612af2601f83613010565b9150612afd82613758565b602082019050919050565b6000612b15600083613005565b9150612b2082613781565b600082019050919050565b6000612b38603183613010565b9150612b4382613784565b604082019050919050565b6000612b5b602383613010565b9150612b66826137d3565b604082019050919050565b6000612b7e601f83613010565b9150612b8982613822565b602082019050919050565b612b9d81613115565b82525050565b6000612bae82612b08565b9150819050919050565b6000602082019050612bcd60008301846127bc565b92915050565b6000608082019050612be860008301876127bc565b612bf560208301866127bc565b612c026040830185612b94565b8181036060830152612c1481846127da565b905095945050505050565b6000602082019050612c3460008301846127cb565b92915050565b60006020820190508181036000830152612c548184612813565b905092915050565b60006020820190508181036000830152612c758161284c565b9050919050565b60006020820190508181036000830152612c958161286f565b9050919050565b60006020820190508181036000830152612cb581612892565b9050919050565b60006020820190508181036000830152612cd5816128b5565b9050919050565b60006020820190508181036000830152612cf5816128d8565b9050919050565b60006020820190508181036000830152612d15816128fb565b9050919050565b60006020820190508181036000830152612d358161291e565b9050919050565b60006020820190508181036000830152612d5581612941565b9050919050565b60006020820190508181036000830152612d7581612964565b9050919050565b60006020820190508181036000830152612d9581612987565b9050919050565b60006020820190508181036000830152612db5816129aa565b9050919050565b60006020820190508181036000830152612dd5816129cd565b9050919050565b60006020820190508181036000830152612df5816129f0565b9050919050565b60006020820190508181036000830152612e1581612a13565b9050919050565b60006020820190508181036000830152612e3581612a36565b9050919050565b60006020820190508181036000830152612e5581612a59565b9050919050565b60006020820190508181036000830152612e7581612a7c565b9050919050565b60006020820190508181036000830152612e9581612a9f565b9050919050565b60006020820190508181036000830152612eb581612ac2565b9050919050565b60006020820190508181036000830152612ed581612ae5565b9050919050565b60006020820190508181036000830152612ef581612b2b565b9050919050565b60006020820190508181036000830152612f1581612b4e565b9050919050565b60006020820190508181036000830152612f3581612b71565b9050919050565b6000602082019050612f516000830184612b94565b92915050565b6000612f61612f72565b9050612f6d8282613193565b919050565b6000604051905090565b600067ffffffffffffffff821115612f9757612f9661326b565b5b612fa08261329a565b9050602081019050919050565b600067ffffffffffffffff821115612fc857612fc761326b565b5b612fd18261329a565b9050602081019050919050565b600081519050919050565b600081519050919050565b600082825260208201905092915050565b600081905092915050565b600082825260208201905092915050565b600061302c82613115565b915061303783613115565b9250827fffffffffffffffffffffffffffffffffffffffffffffffffffffffffffffffff0382111561306c5761306b61320d565b5b828201905092915050565b600061308282613115565b915061308d83613115565b9250828210156130a05761309f61320d565b5b828203905092915050565b60006130b6826130f5565b9050919050565b60008115159050919050565b60007fffffffff0000000000000000000000000000000000000000000000000000000082169050919050565b600073ffffffffffffffffffffffffffffffffffffffff82169050919050565b6000819050919050565b82818337600083830152505050565b60005b8381101561314c578082015181840152602081019050613131565b8381111561315b576000848401525b50505050565b6000600282049050600182168061317957607f821691505b6020821081141561318d5761318c61323c565b5b50919050565b61319c8261329a565b810181811067ffffffffffffffff821117156131bb576131ba61326b565b5b80604052505050565b60006131cf82613115565b91507fffffffffffffffffffffffffffffffffffffffffffffffffffffffffffffffff8214156132025761320161320d565b5b600182019050919050565b7f4e487b7100000000000000000000000000000000000000000000000000000000600052601160045260246000fd5b7f4e487b7100000000000000000000000000000000000000000000000000000000600052602260045260246000fd5b7f4e487b7100000000000000000000000000000000000000000000000000000000600052604160045260246000fd5b6000601f19601f8301169050919050565b7f5061757361626c653a206e6f7420706175736564000000000000000000000000600082015250565b7f4552433732313a207472616e7366657220746f206e6f6e20455243373231526560008201527f63656976657220696d706c656d656e7465720000000000000000000000000000602082015250565b7f4f776e61626c653a206e6577206f776e657220697320746865207a65726f206160008201527f6464726573730000000000000000000000000000000000000000000000000000602082015250565b7f4552433732313a207472616e736665722066726f6d20696e636f72726563742060008201527f6f776e6572000000000000000000000000000000000000000000000000000000602082015250565b7f4552433732313a20746f6b656e20616c7265616479206d696e74656400000000600082015250565b7f4552433732313a207472616e7366657220746f20746865207a65726f2061646460008201527f7265737300000000000000000000000000000000000000000000000000000000602082015250565b7f4552433732313a20617070726f766520746f2063616c6c657200000000000000600082015250565b7f4552433732313a206f70657261746f7220717565727920666f72206e6f6e657860008201527f697374656e7420746f6b656e0000000000000000000000000000000000000000602082015250565b7f436f726e4669204e46543a204d617820737570706c7920726561636865640000600082015250565b7f5061757361626c653a2070617573656400000000000000000000000000000000600082015250565b7f4552433732313a20617070726f76652063616c6c6572206973206e6f74206f7760008201527f6e6572206e6f7220617070726f76656420666f7220616c6c0000000000000000602082015250565b7f4552433732313a2062616c616e636520717565727920666f7220746865207a6560008201527f726f206164647265737300000000000000000000000000000000000000000000602082015250565b7f4552433732313a206f776e657220717565727920666f72206e6f6e657869737460008201527f656e7420746f6b656e0000000000000000000000000000000000000000000000602082015250565b7f4552433732313a206d696e7420746f20746865207a65726f2061646472657373600082015250565b7f4552433732313a20617070726f76656420717565727920666f72206e6f6e657860008201527f697374656e7420746f6b656e0000000000000000000000000000000000000000602082015250565b7f4f776e61626c653a2063616c6c6572206973206e6f7420746865206f776e6572600082015250565b7f4552433732314d657461646174613a2055524920717565727920666f72206e6f60008201527f6e6578697374656e7420746f6b656e0000000000000000000000000000000000602082015250565b7f436f726e4669204e46543a20496e76616c69642066656520616d6f756e740000600082015250565b7f4552433732313a20617070726f76616c20746f2063757272656e74206f776e6560008201527f7200000000000000000000000000000000000000000000000000000000000000602082015250565b7f436f726e4669204e46543a20455448207472616e73666572206661696c656400600082015250565b50565b7f4552433732313a207472616e736665722063616c6c6572206973206e6f74206f60008201527f776e6572206e6f7220617070726f766564000000000000000000000000000000602082015250565b7f436f726e4669204e46543a20557365722063616e206f6e6c79206d696e74206f60008201527f6e63650000000000000000000000000000000000000000000000000000000000602082015250565b7f5265656e7472616e637947756172643a207265656e7472616e742063616c6c00600082015250565b613854816130ab565b811461385f57600080fd5b50565b61386b816130bd565b811461387657600080fd5b50565b613882816130c9565b811461388d57600080fd5b50565b61389981613115565b81146138a457600080fd5b5056fea2646970667358221220aa293cecf7fcb46aecf3887ca962d42c76c6da0dfd7cc5f4f72a1df48bd0718f64736f6c63430008040033",
  "linkReferences": {},
  "deployedLinkReferences": {}
}